{
  "contractName": "AthorisedAccess",
  "abi": [
    {
      "constant": true,
      "inputs": [
        {
          "name": "issuer",
          "type": "address"
        }
      ],
      "name": "isAuthorised",
      "outputs": [
        {
          "name": "",
          "type": "bool"
        }
      ],
      "payable": false,
      "stateMutability": "view",
      "type": "function"
    },
    {
      "constant": false,
      "inputs": [
        {
          "name": "issuer",
          "type": "address"
        }
      ],
      "name": "authorise",
      "outputs": [
        {
          "name": "",
          "type": "bool"
        }
      ],
      "payable": false,
      "stateMutability": "nonpayable",
      "type": "function"
    },
    {
      "constant": false,
      "inputs": [
        {
          "name": "issuer",
          "type": "address"
        }
      ],
      "name": "deauthorise",
      "outputs": [
        {
          "name": "",
          "type": "bool"
        }
      ],
      "payable": false,
      "stateMutability": "nonpayable",
      "type": "function"
    },
    {
      "constant": true,
      "inputs": [],
      "name": "owner",
      "outputs": [
        {
          "name": "",
          "type": "address"
        }
      ],
      "payable": false,
      "stateMutability": "view",
      "type": "function"
    },
    {
      "constant": false,
      "inputs": [
        {
          "name": "newOwner",
          "type": "address"
        }
      ],
      "name": "transferOwnership",
      "outputs": [],
      "payable": false,
      "stateMutability": "nonpayable",
      "type": "function"
    },
    {
      "anonymous": false,
      "inputs": [
        {
          "indexed": false,
          "name": "sender",
          "type": "address"
        },
        {
          "indexed": false,
          "name": "issuer",
          "type": "address"
        }
      ],
      "name": "Athorised",
      "type": "event"
    },
    {
      "anonymous": false,
      "inputs": [
        {
          "indexed": false,
          "name": "sender",
          "type": "address"
        },
        {
          "indexed": false,
          "name": "issuer",
          "type": "address"
        }
      ],
      "name": "Deathorised",
      "type": "event"
    },
    {
      "anonymous": false,
      "inputs": [
        {
          "indexed": true,
          "name": "previousOwner",
          "type": "address"
        },
        {
          "indexed": true,
          "name": "newOwner",
          "type": "address"
        }
      ],
      "name": "OwnershipTransferred",
      "type": "event"
    }
  ],
  "bytecode": "0x6060604052336000806101000a81548173ffffffffffffffffffffffffffffffffffffffff021916908373ffffffffffffffffffffffffffffffffffffffff160217905550610698806100536000396000f30060606040526004361061006d576000357c0100000000000000000000000000000000000000000000000000000000900463ffffffff16806351b699cd1461007257806366e6c8af146100c35780638acbddf0146101145780638da5cb5b14610165578063f2fde38b146101ba575b600080fd5b341561007d57600080fd5b6100a9600480803573ffffffffffffffffffffffffffffffffffffffff169060200190919050506101f3565b604051808215151515815260200191505060405180910390f35b34156100ce57600080fd5b6100fa600480803573ffffffffffffffffffffffffffffffffffffffff16906020019091905050610249565b604051808215151515815260200191505060405180910390f35b341561011f57600080fd5b61014b600480803573ffffffffffffffffffffffffffffffffffffffff1690602001909190505061039d565b604051808215151515815260200191505060405180910390f35b341561017057600080fd5b6101786104f2565b604051808273ffffffffffffffffffffffffffffffffffffffff1673ffffffffffffffffffffffffffffffffffffffff16815260200191505060405180910390f35b34156101c557600080fd5b6101f1600480803573ffffffffffffffffffffffffffffffffffffffff16906020019091905050610517565b005b6000600160008373ffffffffffffffffffffffffffffffffffffffff1673ffffffffffffffffffffffffffffffffffffffff16815260200190815260200160002060009054906101000a900460ff169050919050565b60008060009054906101000a900473ffffffffffffffffffffffffffffffffffffffff1673ffffffffffffffffffffffffffffffffffffffff163373ffffffffffffffffffffffffffffffffffffffff161415156102a657600080fd5b60018060008473ffffffffffffffffffffffffffffffffffffffff1673ffffffffffffffffffffffffffffffffffffffff16815260200190815260200160002060006101000a81548160ff0219169083151502179055507f5188670da5f6f84c934c6a45a13476b15bc323bafd731f60f712a1d1b0cb5c243383604051808373ffffffffffffffffffffffffffffffffffffffff1673ffffffffffffffffffffffffffffffffffffffff1681526020018273ffffffffffffffffffffffffffffffffffffffff1673ffffffffffffffffffffffffffffffffffffffff1681526020019250505060405180910390a160019050919050565b60008060009054906101000a900473ffffffffffffffffffffffffffffffffffffffff1673ffffffffffffffffffffffffffffffffffffffff163373ffffffffffffffffffffffffffffffffffffffff161415156103fa57600080fd5b6000600160008473ffffffffffffffffffffffffffffffffffffffff1673ffffffffffffffffffffffffffffffffffffffff16815260200190815260200160002060006101000a81548160ff0219169083151502179055507f9762c93253f990225e394aff0913b20d2a6b01f5f2885f48621d15cac64afbcd3383604051808373ffffffffffffffffffffffffffffffffffffffff1673ffffffffffffffffffffffffffffffffffffffff1681526020018273ffffffffffffffffffffffffffffffffffffffff1673ffffffffffffffffffffffffffffffffffffffff1681526020019250505060405180910390a160019050919050565b6000809054906101000a900473ffffffffffffffffffffffffffffffffffffffff1681565b6000809054906101000a900473ffffffffffffffffffffffffffffffffffffffff1673ffffffffffffffffffffffffffffffffffffffff163373ffffffffffffffffffffffffffffffffffffffff1614151561057257600080fd5b600073ffffffffffffffffffffffffffffffffffffffff168173ffffffffffffffffffffffffffffffffffffffff16141515156105ae57600080fd5b8073ffffffffffffffffffffffffffffffffffffffff166000809054906101000a900473ffffffffffffffffffffffffffffffffffffffff1673ffffffffffffffffffffffffffffffffffffffff167f8be0079c531659141344cd1fd0a4f28419497f9722a3daafe3b4186f6b6457e060405160405180910390a3806000806101000a81548173ffffffffffffffffffffffffffffffffffffffff021916908373ffffffffffffffffffffffffffffffffffffffff160217905550505600a165627a7a72305820633bab24f1ee82098652518a6588ac3ee572ea9980f381dfaf699f2207199dc50029",
  "source": "pragma solidity ^0.4.16;\n\nimport \"../ownership/Ownable.sol\";\n\n/**\n * @title AthorisedAccess\n * @dev This contract allows to organise a permission based access.\n */\ncontract AthorisedAccess is Ownable {\n    event Athorised(address sender, address issuer);\n    event Deathorised(address sender, address issuer);\n\n    mapping (address => bool) issuers;\n\n    /**\n     * @dev Throws if called by any account other than the athorised issuer.\n     * @notice Owner is not authorised by default.\n    */\n    function authorisedCall() internal constant returns (bool) {\n        require(isAuthorised(msg.sender));\n        return true;\n    }\n    \n    /**\n     * @dev Authorises a new issuer (trusted ethereum address) to issue and revoke documents.\n     */\n    function authorise(address issuer) onlyOwner external returns (bool) {\n        issuers[issuer] = true;\n        Athorised(msg.sender, issuer);\n\n        return true;\n    }\n\n    /**\n     * @dev Deauthorises existing issuer.\n     */\n    function deauthorise(address issuer) onlyOwner external returns (bool) {\n        issuers[issuer] = false;\n        Deathorised(msg.sender, issuer);\n\n        return true;\n    }\n\n    /**\n     * Indicates whether issuer has been authorised.\n     */\n    function isAuthorised(address issuer) public constant returns (bool) {\n        return issuers[issuer];\n    }\n}",
  "sourcePath": "/home/doltry/Ethereum-project/proof-of-certificates-2/contracts/core/AthorisedAccess.sol",
  "compiler": {
    "name": "solc",
    "version": "0.4.18+commit.9cf6e910.Emscripten.clang"
  },
  "schemaVersion": "1.0.1",
  "updatedAt": "2018-01-29T06:51:16.261Z"
}