{
  "contractName": "Certificate",
  "abi": [
    {
      "constant": true,
      "inputs": [],
      "name": "totalDocument",
      "outputs": [
        {
          "name": "",
          "type": "uint256"
        }
      ],
      "payable": false,
      "stateMutability": "view",
      "type": "function"
    },
    {
      "constant": true,
      "inputs": [
        {
          "name": "documentId",
          "type": "string"
        },
        {
          "name": "recipient",
          "type": "string"
        }
      ],
      "name": "revokeDocument",
      "outputs": [
        {
          "name": "",
          "type": "string"
        },
        {
          "name": "",
          "type": "string"
        },
        {
          "name": "",
          "type": "string"
        },
        {
          "name": "",
          "type": "uint256"
        }
      ],
      "payable": false,
      "stateMutability": "view",
      "type": "function"
    },
    {
      "constant": true,
      "inputs": [
        {
          "name": "documentId",
          "type": "string"
        },
        {
          "name": "recipient",
          "type": "string"
        },
        {
          "name": "certificateType",
          "type": "string"
        }
      ],
      "name": "verifyDocument",
      "outputs": [
        {
          "name": "",
          "type": "bool"
        }
      ],
      "payable": false,
      "stateMutability": "view",
      "type": "function"
    },
    {
      "constant": false,
      "inputs": [
        {
          "name": "documentId",
          "type": "string"
        },
        {
          "name": "recipient",
          "type": "string"
        },
        {
          "name": "certificateType",
          "type": "string"
        },
        {
          "name": "_certifier",
          "type": "string"
        }
      ],
      "name": "issueDocument",
      "outputs": [],
      "payable": true,
      "stateMutability": "payable",
      "type": "function"
    },
    {
      "inputs": [],
      "payable": false,
      "stateMutability": "nonpayable",
      "type": "constructor"
    },
    {
      "anonymous": false,
      "inputs": [
        {
          "indexed": false,
          "name": "recipient",
          "type": "string"
        },
        {
          "indexed": false,
          "name": "certificate",
          "type": "string"
        },
        {
          "indexed": false,
          "name": "documentId",
          "type": "string"
        }
      ],
      "name": "DocumentIssued",
      "type": "event"
    }
  ],
  "bytecode": "0x6060604052341561000f57600080fd5b336000806101000a81548173ffffffffffffffffffffffffffffffffffffffff021916908373ffffffffffffffffffffffffffffffffffffffff1602179055506000600181905550611028806100666000396000f300606060405260043610610062576000357c0100000000000000000000000000000000000000000000000000000000900463ffffffff16806315da985514610067578063478e285c146100905780635526e6e4146102885780639b6e59f414610383575b600080fd5b341561007257600080fd5b61007a61049e565b6040518082815260200191505060405180910390f35b341561009b57600080fd5b61012e600480803590602001908201803590602001908080601f0160208091040260200160405190810160405280939291908181526020018383808284378201915050505050509190803590602001908201803590602001908080601f016020809104026020016040519081016040528093929190818152602001838380828437820191505050505050919050506104a8565b60405180806020018060200180602001858152602001848103845288818151815260200191508051906020019080838360005b8381101561017c578082015181840152602081019050610161565b50505050905090810190601f1680156101a95780820380516001836020036101000a031916815260200191505b50848103835287818151815260200191508051906020019080838360005b838110156101e25780820151818401526020810190506101c7565b50505050905090810190601f16801561020f5780820380516001836020036101000a031916815260200191505b50848103825286818151815260200191508051906020019080838360005b8381101561024857808201518184015260208101905061022d565b50505050905090810190601f1680156102755780820380516001836020036101000a031916815260200191505b5097505050505050505060405180910390f35b341561029357600080fd5b610369600480803590602001908201803590602001908080601f0160208091040260200160405190810160405280939291908181526020018383808284378201915050505050509190803590602001908201803590602001908080601f0160208091040260200160405190810160405280939291908181526020018383808284378201915050505050509190803590602001908201803590602001908080601f016020809104026020016040519081016040528093929190818152602001838380828437820191505050505050919050506109ad565b604051808215151515815260200191505060405180910390f35b61049c600480803590602001908201803590602001908080601f0160208091040260200160405190810160405280939291908181526020018383808284378201915050505050509190803590602001908201803590602001908080601f0160208091040260200160405190810160405280939291908181526020018383808284378201915050505050509190803590602001908201803590602001908080601f0160208091040260200160405190810160405280939291908181526020018383808284378201915050505050509190803590602001908201803590602001908080601f01602080910402602001604051908101604052809392919081815260200183838082843782019150505050505091905050610c55565b005b6000600154905090565b6104b0610f43565b6104b8610f43565b6104c0610f43565b6000846040518082805190602001908083835b6020831015156104f857805182526020820191506020810190506020830392506104d3565b6001836020036101000a0380198251168184511680821785525050505050509050019150506040518091039020600019166002876040518082805190602001908083835b602083101515610561578051825260208201915060208101905060208303925061053c565b6001836020036101000a038019825116818451168082178552505050505050905001915050908152602001604051809103902060020160405180828054600181600116156101000203166002900480156105f25780601f106105d05761010080835404028352918201916105f2565b820191906000526020600020905b8154815290600101906020018083116105de575b505091505060405180910390206000191614151561060f57600080fd5b6002866040518082805190602001908083835b6020831015156106475780518252602082019150602081019050602083039250610622565b6001836020036101000a03801982511681845116808217855250505050505090500191505090815260200160405180910390206001016002876040518082805190602001908083835b6020831015156106b55780518252602082019150602081019050602083039250610690565b6001836020036101000a03801982511681845116808217855250505050505090500191505090815260200160405180910390206002016002886040518082805190602001908083835b60208310151561072357805182526020820191506020810190506020830392506106fe565b6001836020036101000a03801982511681845116808217855250505050505090500191505090815260200160405180910390206003016002896040518082805190602001908083835b602083101515610791578051825260208201915060208101905060208303925061076c565b6001836020036101000a038019825116818451168082178552505050505050905001915050908152602001604051809103902060040154838054600181600116156101000203166002900480601f01602080910402602001604051908101604052809291908181526020018280546001816001161561010002031660029004801561085d5780601f106108325761010080835404028352916020019161085d565b820191906000526020600020905b81548152906001019060200180831161084057829003601f168201915b50505050509350828054600181600116156101000203166002900480601f0160208091040260200160405190810160405280929190818152602001828054600181600116156101000203166002900480156108f95780601f106108ce576101008083540402835291602001916108f9565b820191906000526020600020905b8154815290600101906020018083116108dc57829003601f168201915b50505050509250818054600181600116156101000203166002900480601f0160208091040260200160405190810160405280929190818152602001828054600181600116156101000203166002900480156109955780601f1061096a57610100808354040283529160200191610995565b820191906000526020600020905b81548152906001019060200180831161097857829003601f168201915b50505050509150935093509350935092959194509250565b6000826040518082805190602001908083835b6020831015156109e557805182526020820191506020810190506020830392506109c0565b6001836020036101000a0380198251168184511680821785525050505050509050019150506040518091039020600019166002856040518082805190602001908083835b602083101515610a4e5780518252602082019150602081019050602083039250610a29565b6001836020036101000a03801982511681845116808217855250505050505090500191505090815260200160405180910390206002016040518082805460018160011615610100020316600290048015610adf5780601f10610abd576101008083540402835291820191610adf565b820191906000526020600020905b815481529060010190602001808311610acb575b5050915050604051809103902060001916148015610c3b5750816040518082805190602001908083835b602083101515610b2e5780518252602082019150602081019050602083039250610b09565b6001836020036101000a0380198251168184511680821785525050505050509050019150506040518091039020600019166002856040518082805190602001908083835b602083101515610b975780518252602082019150602081019050602083039250610b72565b6001836020036101000a03801982511681845116808217855250505050505090500191505090815260200160405180910390206003016040518082805460018160011615610100020316600290048015610c285780601f10610c06576101008083540402835291820191610c28565b820191906000526020600020905b815481529060010190602001808311610c14575b5050915050604051809103902060001916145b15610c495760019050610c4e565b600090505b9392505050565b60008060009054906101000a900473ffffffffffffffffffffffffffffffffffffffff1673ffffffffffffffffffffffffffffffffffffffff163373ffffffffffffffffffffffffffffffffffffffff16141515610cb257600080fd5b6002856040518082805190602001908083835b602083101515610cea5780518252602082019150602081019050602083039250610cc5565b6001836020036101000a03801982511681845116808217855250505050505090500191505090815260200160405180910390209050338160000160006101000a81548173ffffffffffffffffffffffffffffffffffffffff021916908373ffffffffffffffffffffffffffffffffffffffff16021790555081816001019080519060200190610d7a929190610f57565b5083816002019080519060200190610d93929190610f57565b5082816003019080519060200190610dac929190610f57565b50438160040181905550600180600082825401925050819055507f318f59086fcf5ed8659f3b7f545a448c02ecfda9a1ca627dc89938e54ddac83384848760405180806020018060200180602001848103845287818151815260200191508051906020019080838360005b83811015610e32578082015181840152602081019050610e17565b50505050905090810190601f168015610e5f5780820380516001836020036101000a031916815260200191505b50848103835286818151815260200191508051906020019080838360005b83811015610e98578082015181840152602081019050610e7d565b50505050905090810190601f168015610ec55780820380516001836020036101000a031916815260200191505b50848103825285818151815260200191508051906020019080838360005b83811015610efe578082015181840152602081019050610ee3565b50505050905090810190601f168015610f2b5780820380516001836020036101000a031916815260200191505b50965050505050505060405180910390a15050505050565b602060405190810160405280600081525090565b828054600181600116156101000203166002900490600052602060002090601f016020900481019282601f10610f9857805160ff1916838001178555610fc6565b82800160010185558215610fc6579182015b82811115610fc5578251825591602001919060010190610faa565b5b509050610fd39190610fd7565b5090565b610ff991905b80821115610ff5576000816000905550600101610fdd565b5090565b905600a165627a7a72305820511e4bb71189312d3ee124e066e059784df0c4b7654335c3193121fc8f65377b0029",
  "source": "pragma solidity 0.4.18;\n\ncontract Certificate{\n\n    address owner;\n    uint256 numCertificateIssued;\n\n    function Certificate() public{\n        owner = msg.sender;\n        numCertificateIssued = 0;\n    }\n    \n    modifier onlyOwner{\n        require(msg.sender == owner);\n        _;\n    }\n    \n    struct DocumentBody{\n        address issuerAddress;\n        string issuerName; //bytes16\n        string recipientName; //bytes16\n        //bytes16 date;\n        string certificate;//bytes32\n        uint256 blockNumber;\n\n    }\n\n    mapping (string => DocumentBody) documents;\n\n\n    event DocumentIssued(\n        string recipient, \n        string certificate, \n        string documentId\n    );\n    \n     /**\n     * @dev Issues document.\n     */\n    function issueDocument(string documentId,string recipient, string certificateType, string _certifier)onlyOwner payable public{//} returns (bool) {\n        //require(documents[document].issuerAddress == address(0));\n        var certificate = documents[documentId];//msg.sender]; \n        certificate.issuerAddress = msg.sender;\n        certificate.issuerName = _certifier;\n        certificate.recipientName = recipient;\n        certificate.certificate = certificateType;\n        certificate.blockNumber = block.number;\n\n        numCertificateIssued +=1;\n        DocumentIssued(recipient, certificateType, documentId);\n\n        //return true;\n    }\n\n   //event DocumentRevoked(bytes16 recipient);\n\n    /**\n     * @dev Revokes existing document and sets the recipient to 0x0.\n     */\n    function revokeDocument(string documentId, string recipient)constant returns (string,string,string,uint256) {\n        require(keccak256(documents[documentId].recipientName) == keccak256(recipient));//keccak256 gas cost is low than string comparision\n        //documents[document].recipient = address(0);\n\n        //DocumentRevoked(recipient);\n\n        return(documents[documentId].issuerName,documents[documentId].recipientName,documents[documentId].certificate,documents[documentId].blockNumber) ;\n    }\n\n    function verifyDocument(string documentId, string recipient,string certificateType)constant returns(bool){\n        if(keccak256(documents[documentId].recipientName) == keccak256(recipient) &&\n        keccak256(documents[documentId].certificate) == keccak256(certificateType)){\n            return true;\n        }else{\n            return false;\n        }\n    }\n\n    function totalDocument() view public returns(uint256){\n        return numCertificateIssued;\n    }\n\n}",
  "sourcePath": "/home/doltry/Ethereum-project/proof-of-certificates-2/contracts/Certificate.sol",
  "compiler": {
    "name": "solc",
    "version": "0.4.18+commit.9cf6e910.Emscripten.clang"
  },
  "schemaVersion": "1.0.1",
  "updatedAt": "2018-01-29T06:51:17.073Z"
}