{
  "contractName": "Certificate",
  "abi": [
    {
      "constant": false,
      "inputs": [
        {
          "name": "recipient",
          "type": "string"
        },
        {
          "name": "certificateType",
          "type": "string"
        },
        {
          "name": "_certifier",
          "type": "string"
        }
      ],
      "name": "issueDocument",
      "outputs": [],
      "payable": true,
      "stateMutability": "payable",
      "type": "function"
    },
    {
      "constant": true,
      "inputs": [],
      "name": "totalDocument",
      "outputs": [
        {
          "name": "",
          "type": "uint256"
        }
      ],
      "payable": false,
      "stateMutability": "view",
      "type": "function"
    },
    {
      "constant": true,
      "inputs": [
        {
          "name": "_address",
          "type": "address"
        },
        {
          "name": "recipient",
          "type": "string"
        }
      ],
      "name": "revokeDocument",
      "outputs": [
        {
          "name": "",
          "type": "string"
        },
        {
          "name": "",
          "type": "string"
        },
        {
          "name": "",
          "type": "string"
        },
        {
          "name": "",
          "type": "uint256"
        }
      ],
      "payable": false,
      "stateMutability": "view",
      "type": "function"
    },
    {
      "constant": true,
      "inputs": [
        {
          "name": "_address",
          "type": "address"
        },
        {
          "name": "recipient",
          "type": "string"
        },
        {
          "name": "certificateType",
          "type": "string"
        }
      ],
      "name": "verifyDocument",
      "outputs": [
        {
          "name": "",
          "type": "bool"
        }
      ],
      "payable": false,
      "stateMutability": "view",
      "type": "function"
    },
    {
      "inputs": [],
      "payable": false,
      "stateMutability": "nonpayable",
      "type": "constructor"
    },
    {
      "anonymous": false,
      "inputs": [
        {
          "indexed": false,
          "name": "recipient",
          "type": "string"
        },
        {
          "indexed": false,
          "name": "certificate",
          "type": "string"
        },
        {
          "indexed": false,
          "name": "certifier",
          "type": "string"
        }
      ],
      "name": "DocumentIssued",
      "type": "event"
    }
  ],
  "bytecode": "0x6060604052341561000f57600080fd5b336000806101000a81548173ffffffffffffffffffffffffffffffffffffffff021916908373ffffffffffffffffffffffffffffffffffffffff1602179055506000600181905550610df8806100666000396000f300606060405260043610610061576000357c0100000000000000000000000000000000000000000000000000000000900463ffffffff1680620ce6f71461006657806315da98551461013e5780637dc9704a14610167578063a1bc545c1461033b575b600080fd5b61013c600480803590602001908201803590602001908080601f0160208091040260200160405190810160405280939291908181526020018383808284378201915050505050509190803590602001908201803590602001908080601f0160208091040260200160405190810160405280939291908181526020018383808284378201915050505050509190803590602001908201803590602001908080601f01602080910402602001604051908101604052809392919081815260200183838082843782019150505050505091905050610412565b005b341561014957600080fd5b610151610690565b6040518082815260200191505060405180910390f35b341561017257600080fd5b6101e1600480803573ffffffffffffffffffffffffffffffffffffffff1690602001909190803590602001908201803590602001908080601f0160208091040260200160405190810160405280939291908181526020018383808284378201915050505050509190505061069a565b60405180806020018060200180602001858152602001848103845288818151815260200191508051906020019080838360005b8381101561022f578082015181840152602081019050610214565b50505050905090810190601f16801561025c5780820380516001836020036101000a031916815260200191505b50848103835287818151815260200191508051906020019080838360005b8381101561029557808201518184015260208101905061027a565b50505050905090810190601f1680156102c25780820380516001836020036101000a031916815260200191505b50848103825286818151815260200191508051906020019080838360005b838110156102fb5780820151818401526020810190506102e0565b50505050905090810190601f1680156103285780820380516001836020036101000a031916815260200191505b5097505050505050505060405180910390f35b341561034657600080fd5b6103f8600480803573ffffffffffffffffffffffffffffffffffffffff1690602001909190803590602001908201803590602001908080601f0160208091040260200160405190810160405280939291908181526020018383808284378201915050505050509190803590602001908201803590602001908080601f01602080910402602001604051908101604052809392919081815260200183838082843782019150505050505091905050610ac3565b604051808215151515815260200191505060405180910390f35b60008060009054906101000a900473ffffffffffffffffffffffffffffffffffffffff1673ffffffffffffffffffffffffffffffffffffffff163373ffffffffffffffffffffffffffffffffffffffff1614151561046f57600080fd5b600260003373ffffffffffffffffffffffffffffffffffffffff1673ffffffffffffffffffffffffffffffffffffffff1681526020019081526020016000209050818160000190805190602001906104c8929190610d13565b50838160010190805190602001906104e1929190610d13565b50828160020190805190602001906104fa929190610d13565b50438160030181905550600180600082825401925050819055507f318f59086fcf5ed8659f3b7f545a448c02ecfda9a1ca627dc89938e54ddac83384848460405180806020018060200180602001848103845287818151815260200191508051906020019080838360005b83811015610580578082015181840152602081019050610565565b50505050905090810190601f1680156105ad5780820380516001836020036101000a031916815260200191505b50848103835286818151815260200191508051906020019080838360005b838110156105e65780820151818401526020810190506105cb565b50505050905090810190601f1680156106135780820380516001836020036101000a031916815260200191505b50848103825285818151815260200191508051906020019080838360005b8381101561064c578082015181840152602081019050610631565b50505050905090810190601f1680156106795780820380516001836020036101000a031916815260200191505b50965050505050505060405180910390a150505050565b6000600154905090565b6106a2610d93565b6106aa610d93565b6106b2610d93565b6000846040518082805190602001908083835b6020831015156106ea57805182526020820191506020810190506020830392506106c5565b6001836020036101000a038019825116818451168082178552505050505050905001915050604051809103902060001916600260008873ffffffffffffffffffffffffffffffffffffffff1673ffffffffffffffffffffffffffffffffffffffff16815260200190815260200160002060010160405180828054600181600116156101000203166002900480156107b85780601f106107965761010080835404028352918201916107b8565b820191906000526020600020905b8154815290600101906020018083116107a4575b50509150506040518091039020600019161415156107d557600080fd5b600260008773ffffffffffffffffffffffffffffffffffffffff1673ffffffffffffffffffffffffffffffffffffffff168152602001908152602001600020600001600260008873ffffffffffffffffffffffffffffffffffffffff1673ffffffffffffffffffffffffffffffffffffffff168152602001908152602001600020600101600260008973ffffffffffffffffffffffffffffffffffffffff1673ffffffffffffffffffffffffffffffffffffffff168152602001908152602001600020600201600260008a73ffffffffffffffffffffffffffffffffffffffff1673ffffffffffffffffffffffffffffffffffffffff16815260200190815260200160002060030154838054600181600116156101000203166002900480601f0160208091040260200160405190810160405280929190818152602001828054600181600116156101000203166002900480156109735780601f1061094857610100808354040283529160200191610973565b820191906000526020600020905b81548152906001019060200180831161095657829003601f168201915b50505050509350828054600181600116156101000203166002900480601f016020809104026020016040519081016040528092919081815260200182805460018160011615610100020316600290048015610a0f5780601f106109e457610100808354040283529160200191610a0f565b820191906000526020600020905b8154815290600101906020018083116109f257829003601f168201915b50505050509250818054600181600116156101000203166002900480601f016020809104026020016040519081016040528092919081815260200182805460018160011615610100020316600290048015610aab5780601f10610a8057610100808354040283529160200191610aab565b820191906000526020600020905b815481529060010190602001808311610a8e57829003601f168201915b50505050509150935093509350935092959194509250565b6000826040518082805190602001908083835b602083101515610afb5780518252602082019150602081019050602083039250610ad6565b6001836020036101000a038019825116818451168082178552505050505050905001915050604051809103902060001916600260008673ffffffffffffffffffffffffffffffffffffffff1673ffffffffffffffffffffffffffffffffffffffff1681526020019081526020016000206001016040518082805460018160011615610100020316600290048015610bc95780601f10610ba7576101008083540402835291820191610bc9565b820191906000526020600020905b815481529060010190602001808311610bb5575b5050915050604051809103902060001916148015610cf95750816040518082805190602001908083835b602083101515610c185780518252602082019150602081019050602083039250610bf3565b6001836020036101000a038019825116818451168082178552505050505050905001915050604051809103902060001916600260008673ffffffffffffffffffffffffffffffffffffffff1673ffffffffffffffffffffffffffffffffffffffff1681526020019081526020016000206002016040518082805460018160011615610100020316600290048015610ce65780601f10610cc4576101008083540402835291820191610ce6565b820191906000526020600020905b815481529060010190602001808311610cd2575b5050915050604051809103902060001916145b15610d075760019050610d0c565b600090505b9392505050565b828054600181600116156101000203166002900490600052602060002090601f016020900481019282601f10610d5457805160ff1916838001178555610d82565b82800160010185558215610d82579182015b82811115610d81578251825591602001919060010190610d66565b5b509050610d8f9190610da7565b5090565b602060405190810160405280600081525090565b610dc991905b80821115610dc5576000816000905550600101610dad565b5090565b905600a165627a7a72305820a432ba62417c75a76468c4efdc8afdf2236c9dad818860a372238466eb3b436b0029",
  "source": "pragma solidity ^0.4.18;\n\ncontract Certificate{\n\n    address owner;\n    uint256 CertificateIssued;\n    function Certificate() public{\n        owner = msg.sender;\n        CertificateIssued = 0;\n    }\n    \n    modifier onlyOwner{\n        require(msg.sender == owner);\n        _;\n    }\n    \n    struct DocumentBody{\n        //address issuerAddress;\n        string issuerName; //bytes16\n        string recipientName; //bytes16\n        //bytes16 date;\n        string certificate;//bytes32\n        uint256 blockNumber;\n\n    }\n\n    mapping (address => DocumentBody) documents;\n\n\n    event DocumentIssued(\n        string recipient, \n        string certificate, \n        string certifier\n    );\n     /**\n     * @dev Issues document.\n     */\n    function issueDocument(string recipient, string certificateType, string _certifier)onlyOwner payable public{//} returns (bool) {\n        //require(documents[document].issuerAddress == address(0));\n        var certificate = documents[msg.sender]; \n        //documents[document].issuerAddress = msg.sender;\n        certificate.issuerName = _certifier;\n        certificate.recipientName = recipient;\n        certificate.certificate = certificateType;\n        certificate.blockNumber = block.number;\n\n        CertificateIssued +=1;\n        DocumentIssued(recipient, certificateType, _certifier);\n\n        //return true;\n    }\n\n   //event DocumentRevoked(bytes16 recipient);\n\n    /**\n     * @dev Revokes existing document and sets the recipient to 0x0.\n     */\n    function revokeDocument(address _address,string recipient)view public returns (string,string,string,uint256) {\n        require(keccak256(documents[_address].recipientName) == keccak256(recipient));//keccak256 gas cost is low than string comparision\n        //documents[document].recipient = address(0);\n\n        //DocumentRevoked(recipient);\n\n        return(documents[_address].issuerName,documents[_address].recipientName,documents[_address].certificate,documents[_address].blockNumber) ;\n    }\n\n    function verifyDocument(address _address, string recipient,string certificateType)view public returns(bool){\n        if(keccak256(documents[_address].recipientName) == keccak256(recipient) &&\n        keccak256(documents[_address].certificate) == keccak256(certificateType)){\n            return true;\n        }else{\n            return false;\n        }\n    }\n\n    function totalDocument() view public returns(uint256){\n        return CertificateIssued;\n    }\n\n}",
  "sourcePath": "/home/doltry/Ethereum-project/proof-of-certificates-2/contracts/Certificate.sol",
  "compiler": {
    "name": "solc",
    "version": "0.4.18+commit.9cf6e910.Emscripten.clang"
  },
  "schemaVersion": "1.0.1",
  "updatedAt": "2018-01-25T11:54:23.194Z"
}