{
  "contractName": "PublicPayableDocument",
  "abi": [
    {
      "constant": false,
      "inputs": [
        {
          "name": "newPrice",
          "type": "uint256"
        }
      ],
      "name": "setIssuePrice",
      "outputs": [],
      "payable": false,
      "stateMutability": "nonpayable",
      "type": "function"
    },
    {
      "constant": false,
      "inputs": [
        {
          "name": "recipient",
          "type": "address"
        },
        {
          "name": "document",
          "type": "bytes32"
        }
      ],
      "name": "issueDocument",
      "outputs": [
        {
          "name": "",
          "type": "bool"
        }
      ],
      "payable": true,
      "stateMutability": "payable",
      "type": "function"
    },
    {
      "constant": true,
      "inputs": [],
      "name": "issuePrice",
      "outputs": [
        {
          "name": "",
          "type": "uint256"
        }
      ],
      "payable": false,
      "stateMutability": "view",
      "type": "function"
    },
    {
      "constant": false,
      "inputs": [
        {
          "name": "recipient",
          "type": "address"
        },
        {
          "name": "document",
          "type": "bytes32"
        }
      ],
      "name": "revokeDocument",
      "outputs": [
        {
          "name": "",
          "type": "bool"
        }
      ],
      "payable": false,
      "stateMutability": "nonpayable",
      "type": "function"
    },
    {
      "constant": true,
      "inputs": [
        {
          "name": "recipient",
          "type": "address"
        },
        {
          "name": "document",
          "type": "bytes32"
        }
      ],
      "name": "verifyDocument",
      "outputs": [
        {
          "name": "",
          "type": "bool"
        }
      ],
      "payable": false,
      "stateMutability": "view",
      "type": "function"
    },
    {
      "constant": true,
      "inputs": [],
      "name": "owner",
      "outputs": [
        {
          "name": "",
          "type": "address"
        }
      ],
      "payable": false,
      "stateMutability": "view",
      "type": "function"
    },
    {
      "constant": false,
      "inputs": [],
      "name": "widthraw",
      "outputs": [],
      "payable": false,
      "stateMutability": "nonpayable",
      "type": "function"
    },
    {
      "constant": true,
      "inputs": [
        {
          "name": "document",
          "type": "bytes32"
        }
      ],
      "name": "getDocument",
      "outputs": [
        {
          "name": "",
          "type": "address"
        },
        {
          "name": "",
          "type": "address"
        },
        {
          "name": "",
          "type": "uint256"
        }
      ],
      "payable": false,
      "stateMutability": "view",
      "type": "function"
    },
    {
      "constant": false,
      "inputs": [
        {
          "name": "owner",
          "type": "address"
        },
        {
          "name": "recipient",
          "type": "address"
        },
        {
          "name": "document",
          "type": "bytes32"
        }
      ],
      "name": "transferDocument",
      "outputs": [
        {
          "name": "",
          "type": "bool"
        }
      ],
      "payable": false,
      "stateMutability": "nonpayable",
      "type": "function"
    },
    {
      "constant": false,
      "inputs": [
        {
          "name": "newOwner",
          "type": "address"
        }
      ],
      "name": "transferOwnership",
      "outputs": [],
      "payable": false,
      "stateMutability": "nonpayable",
      "type": "function"
    },
    {
      "payable": true,
      "stateMutability": "payable",
      "type": "fallback"
    },
    {
      "anonymous": false,
      "inputs": [
        {
          "indexed": false,
          "name": "newPrice",
          "type": "uint256"
        }
      ],
      "name": "NewPriceSet",
      "type": "event"
    },
    {
      "anonymous": false,
      "inputs": [
        {
          "indexed": false,
          "name": "from",
          "type": "address"
        },
        {
          "indexed": false,
          "name": "to",
          "type": "address"
        },
        {
          "indexed": false,
          "name": "document",
          "type": "bytes32"
        }
      ],
      "name": "DocumentTransfered",
      "type": "event"
    },
    {
      "anonymous": false,
      "inputs": [
        {
          "indexed": false,
          "name": "recipient",
          "type": "address"
        },
        {
          "indexed": false,
          "name": "document",
          "type": "bytes32"
        }
      ],
      "name": "DocumentRevoked",
      "type": "event"
    },
    {
      "anonymous": false,
      "inputs": [
        {
          "indexed": false,
          "name": "recipient",
          "type": "address"
        },
        {
          "indexed": false,
          "name": "document",
          "type": "bytes32"
        }
      ],
      "name": "DocumentIssued",
      "type": "event"
    },
    {
      "anonymous": false,
      "inputs": [
        {
          "indexed": true,
          "name": "previousOwner",
          "type": "address"
        },
        {
          "indexed": true,
          "name": "newOwner",
          "type": "address"
        }
      ],
      "name": "OwnershipTransferred",
      "type": "event"
    }
  ],
  "bytecode": "0x6060604052336000806101000a81548173ffffffffffffffffffffffffffffffffffffffff021916908373ffffffffffffffffffffffffffffffffffffffff160217905550610eb6806100536000396000f3006060604052600436106100a4576000357c0100000000000000000000000000000000000000000000000000000000900463ffffffff1680633cd5d2b2146101165780634889da63146101395780635c2c20051461018c5780636ecf6c17146101b557806373fea503146102135780638da5cb5b14610271578063aa3ba179146102c6578063b10d6b41146102db578063ccb893f71461037c578063f2fde38b146103f9575b6000341115156100b357600080fd5b6000809054906101000a900473ffffffffffffffffffffffffffffffffffffffff1673ffffffffffffffffffffffffffffffffffffffff166108fc349081150290604051600060405180830381858888f19350505050151561011457600080fd5b005b341561012157600080fd5b6101376004808035906020019091905050610432565b005b610172600480803573ffffffffffffffffffffffffffffffffffffffff16906020019091908035600019169060200190919050506104de565b604051808215151515815260200191505060405180910390f35b341561019757600080fd5b61019f6105d2565b6040518082815260200191505060405180910390f35b34156101c057600080fd5b6101f9600480803573ffffffffffffffffffffffffffffffffffffffff16906020019091908035600019169060200190919050506105d8565b604051808215151515815260200191505060405180910390f35b341561021e57600080fd5b610257600480803573ffffffffffffffffffffffffffffffffffffffff169060200190919080356000191690602001909190505061072d565b604051808215151515815260200191505060405180910390f35b341561027c57600080fd5b6102846107dc565b604051808273ffffffffffffffffffffffffffffffffffffffff1673ffffffffffffffffffffffffffffffffffffffff16815260200191505060405180910390f35b34156102d157600080fd5b6102d9610801565b005b34156102e657600080fd5b6103006004808035600019169060200190919050506108d6565b604051808473ffffffffffffffffffffffffffffffffffffffff1673ffffffffffffffffffffffffffffffffffffffff1681526020018373ffffffffffffffffffffffffffffffffffffffff1673ffffffffffffffffffffffffffffffffffffffff168152602001828152602001935050505060405180910390f35b341561038757600080fd5b6103df600480803573ffffffffffffffffffffffffffffffffffffffff1690602001909190803573ffffffffffffffffffffffffffffffffffffffff1690602001909190803560001916906020019091905050610985565b604051808215151515815260200191505060405180910390f35b341561040457600080fd5b610430600480803573ffffffffffffffffffffffffffffffffffffffff16906020019091905050610b48565b005b6000809054906101000a900473ffffffffffffffffffffffffffffffffffffffff1673ffffffffffffffffffffffffffffffffffffffff163373ffffffffffffffffffffffffffffffffffffffff1614151561048d57600080fd5b6000811015151561049d57600080fd5b806002819055507f4e8ad04c3fba0cbea0ab1df84b92a72a289ddf64da15f4c1c396891d37c39b01816040518082815260200191505060405180910390a150565b600060025434101515156104f157600080fd5b6104fb8383610c9d565b151561050657600080fd5b6000809054906101000a900473ffffffffffffffffffffffffffffffffffffffff1673ffffffffffffffffffffffffffffffffffffffff166108fc6002549081150290604051600060405180830381858888f19350505050151561056957600080fd5b6002543411156105c8573373ffffffffffffffffffffffffffffffffffffffff166108fc6105a260025434610e7190919063ffffffff16565b9081150290604051600060405180830381858888f1935050505015156105c757600080fd5b5b6001905092915050565b60025481565b60008273ffffffffffffffffffffffffffffffffffffffff1660016000846000191660001916815260200190815260200160002060010160009054906101000a900473ffffffffffffffffffffffffffffffffffffffff1673ffffffffffffffffffffffffffffffffffffffff1614151561065257600080fd5b600060016000846000191660001916815260200190815260200160002060010160006101000a81548173ffffffffffffffffffffffffffffffffffffffff021916908373ffffffffffffffffffffffffffffffffffffffff1602179055507fc0dffbae164b623d0161811974c3fd52d435c3c91eaa665dbf2e13d74db914ae8383604051808373ffffffffffffffffffffffffffffffffffffffff1673ffffffffffffffffffffffffffffffffffffffff16815260200182600019166000191681526020019250505060405180910390a16001905092915050565b60008073ffffffffffffffffffffffffffffffffffffffff168373ffffffffffffffffffffffffffffffffffffffff16141580156107d457508273ffffffffffffffffffffffffffffffffffffffff1660016000846000191660001916815260200190815260200160002060010160009054906101000a900473ffffffffffffffffffffffffffffffffffffffff1673ffffffffffffffffffffffffffffffffffffffff16145b905092915050565b6000809054906101000a900473ffffffffffffffffffffffffffffffffffffffff1681565b6000809054906101000a900473ffffffffffffffffffffffffffffffffffffffff1673ffffffffffffffffffffffffffffffffffffffff163373ffffffffffffffffffffffffffffffffffffffff1614151561085c57600080fd5b6000809054906101000a900473ffffffffffffffffffffffffffffffffffffffff1673ffffffffffffffffffffffffffffffffffffffff166108fc3073ffffffffffffffffffffffffffffffffffffffff16319081150290604051600060405180830381858888f1935050505015156108d457600080fd5b565b600080600060016000856000191660001916815260200190815260200160002060000160009054906101000a900473ffffffffffffffffffffffffffffffffffffffff1660016000866000191660001916815260200190815260200160002060010160009054906101000a900473ffffffffffffffffffffffffffffffffffffffff16600160008760001916600019168152602001908152602001600020600201549250925092509193909250565b60008373ffffffffffffffffffffffffffffffffffffffff163373ffffffffffffffffffffffffffffffffffffffff161415156109c157600080fd5b8373ffffffffffffffffffffffffffffffffffffffff1660016000846000191660001916815260200190815260200160002060010160009054906101000a900473ffffffffffffffffffffffffffffffffffffffff1673ffffffffffffffffffffffffffffffffffffffff16141515610a3957600080fd5b8260016000846000191660001916815260200190815260200160002060010160006101000a81548173ffffffffffffffffffffffffffffffffffffffff021916908373ffffffffffffffffffffffffffffffffffffffff1602179055507f2d72a3e944e8feae8d85647a0a70858562be2a54859852cd6152fff1ac035d64848484604051808473ffffffffffffffffffffffffffffffffffffffff1673ffffffffffffffffffffffffffffffffffffffff1681526020018373ffffffffffffffffffffffffffffffffffffffff1673ffffffffffffffffffffffffffffffffffffffff1681526020018260001916600019168152602001935050505060405180910390a1600190509392505050565b6000809054906101000a900473ffffffffffffffffffffffffffffffffffffffff1673ffffffffffffffffffffffffffffffffffffffff163373ffffffffffffffffffffffffffffffffffffffff16141515610ba357600080fd5b600073ffffffffffffffffffffffffffffffffffffffff168173ffffffffffffffffffffffffffffffffffffffff1614151515610bdf57600080fd5b8073ffffffffffffffffffffffffffffffffffffffff166000809054906101000a900473ffffffffffffffffffffffffffffffffffffffff1673ffffffffffffffffffffffffffffffffffffffff167f8be0079c531659141344cd1fd0a4f28419497f9722a3daafe3b4186f6b6457e060405160405180910390a3806000806101000a81548173ffffffffffffffffffffffffffffffffffffffff021916908373ffffffffffffffffffffffffffffffffffffffff16021790555050565b60008073ffffffffffffffffffffffffffffffffffffffff1660016000846000191660001916815260200190815260200160002060000160009054906101000a900473ffffffffffffffffffffffffffffffffffffffff1673ffffffffffffffffffffffffffffffffffffffff16141515610d1757600080fd5b3360016000846000191660001916815260200190815260200160002060000160006101000a81548173ffffffffffffffffffffffffffffffffffffffff021916908373ffffffffffffffffffffffffffffffffffffffff1602179055508260016000846000191660001916815260200190815260200160002060010160006101000a81548173ffffffffffffffffffffffffffffffffffffffff021916908373ffffffffffffffffffffffffffffffffffffffff16021790555043600160008460001916600019168152602001908152602001600020600201819055507f5464d89fdaa880f0b597e1dcd8b19e90b68b4d6d8e3e43f49d09ad8924a55c828383604051808373ffffffffffffffffffffffffffffffffffffffff1673ffffffffffffffffffffffffffffffffffffffff16815260200182600019166000191681526020019250505060405180910390a16001905092915050565b6000828211151515610e7f57fe5b8183039050929150505600a165627a7a7230582064c8e4bbecdf0f9a283bff48edf31ba0ce7f67b8f188b5d56a4b134ab40890e80029",
  "source": "pragma solidity ^0.4.16;\n\nimport \"../math/SafeMath.sol\";\nimport \"./PublicDocument.sol\";\n\n/**\n * @title PublicPayableDocument\n * @dev Charges a fixed fee (goes to the contract's owner) for document issue. \n *      Anyone who knows the contract address can issue and revoke documents.\n */\ncontract PublicPayableDocument is PublicDocument {\n    using SafeMath for uint256;\n    \n    event NewPriceSet(uint256 newPrice);\n    \n    uint256 public issuePrice;\n\n    /**\n     * @dev Issues document for a fixed fee.\n     * @dev Can be called by anyone who knows the contract address.\n     */\n    function issueDocument(address recipient, bytes32 document) payable public returns (bool) {\n        require(msg.value >= issuePrice);\n        require(super.issueDocument(recipient, document));\n\n        owner.transfer(issuePrice);\n        if (msg.value > issuePrice)\n            msg.sender.transfer(msg.value.sub(issuePrice));\n\n        return true;\n    }\n\n    /**\n     * @dev Set a fixed fee for document issue.\n     */\n    function setIssuePrice(uint256 newPrice) onlyOwner external {\n        require(newPrice >= 0);\n        \n        issuePrice = newPrice;\n        NewPriceSet(newPrice);\n    }\n}",
  "sourcePath": "/home/doltry/Ethereum-project/proof-of-certificates-2/contracts/document/PublicPayableDocument.sol",
  "compiler": {
    "name": "solc",
    "version": "0.4.18+commit.9cf6e910.Emscripten.clang"
  },
  "schemaVersion": "1.0.1",
  "updatedAt": "2018-01-29T06:51:16.270Z"
}